{
  "contracts/JustPay/JustPay.sol": {
    "JustPay": {
      "abi": [
        {
          "inputs": [],
          "stateMutability": "nonpayable",
          "type": "constructor"
        },
        {
          "inputs": [
            {
              "internalType": "address",
              "name": "target",
              "type": "address"
            }
          ],
          "name": "AddressEmptyCode",
          "type": "error"
        },
        {
          "inputs": [
            {
              "internalType": "address",
              "name": "account",
              "type": "address"
            }
          ],
          "name": "AddressInsufficientBalance",
          "type": "error"
        },
        {
          "inputs": [],
          "name": "ECDSAInvalidSignature",
          "type": "error"
        },
        {
          "inputs": [
            {
              "internalType": "uint256",
              "name": "length",
              "type": "uint256"
            }
          ],
          "name": "ECDSAInvalidSignatureLength",
          "type": "error"
        },
        {
          "inputs": [
            {
              "internalType": "bytes32",
              "name": "s",
              "type": "bytes32"
            }
          ],
          "name": "ECDSAInvalidSignatureS",
          "type": "error"
        },
        {
          "inputs": [],
          "name": "FailedInnerCall",
          "type": "error"
        },
        {
          "inputs": [],
          "name": "InvalidShortString",
          "type": "error"
        },
        {
          "inputs": [],
          "name": "ReentrancyGuardReentrantCall",
          "type": "error"
        },
        {
          "inputs": [
            {
              "internalType": "address",
              "name": "token",
              "type": "address"
            }
          ],
          "name": "SafeERC20FailedOperation",
          "type": "error"
        },
        {
          "inputs": [
            {
              "internalType": "string",
              "name": "str",
              "type": "string"
            }
          ],
          "name": "StringTooLong",
          "type": "error"
        },
        {
          "anonymous": false,
          "inputs": [],
          "name": "EIP712DomainChanged",
          "type": "event"
        },
        {
          "anonymous": false,
          "inputs": [
            {
              "components": [
                {
                  "internalType": "uint256",
                  "name": "paymentId",
                  "type": "uint256"
                },
                {
                  "internalType": "address",
                  "name": "sender",
                  "type": "address"
                },
                {
                  "internalType": "address",
                  "name": "receiver",
                  "type": "address"
                },
                {
                  "internalType": "address",
                  "name": "token",
                  "type": "address"
                },
                {
                  "internalType": "uint256",
                  "name": "amount",
                  "type": "uint256"
                },
                {
                  "internalType": "address",
                  "name": "executor",
                  "type": "address"
                },
                {
                  "internalType": "address",
                  "name": "feeToken",
                  "type": "address"
                },
                {
                  "internalType": "uint256",
                  "name": "feeAmount",
                  "type": "uint256"
                },
                {
                  "internalType": "uint256",
                  "name": "chainId",
                  "type": "uint256"
                },
                {
                  "internalType": "uint256",
                  "name": "deadline",
                  "type": "uint256"
                },
                {
                  "internalType": "uint256",
                  "name": "salt",
                  "type": "uint256"
                }
              ],
              "indexed": false,
              "internalType": "struct LibPayment.Payment",
              "name": "payment",
              "type": "tuple"
            }
          ],
          "name": "PaymentCanceled",
          "type": "event"
        },
        {
          "anonymous": false,
          "inputs": [
            {
              "components": [
                {
                  "internalType": "uint256",
                  "name": "paymentId",
                  "type": "uint256"
                },
                {
                  "internalType": "address",
                  "name": "sender",
                  "type": "address"
                },
                {
                  "internalType": "address",
                  "name": "receiver",
                  "type": "address"
                },
                {
                  "internalType": "address",
                  "name": "token",
                  "type": "address"
                },
                {
                  "internalType": "uint256",
                  "name": "amount",
                  "type": "uint256"
                },
                {
                  "internalType": "address",
                  "name": "executor",
                  "type": "address"
                },
                {
                  "internalType": "address",
                  "name": "feeToken",
                  "type": "address"
                },
                {
                  "internalType": "uint256",
                  "name": "feeAmount",
                  "type": "uint256"
                },
                {
                  "internalType": "uint256",
                  "name": "chainId",
                  "type": "uint256"
                },
                {
                  "internalType": "uint256",
                  "name": "deadline",
                  "type": "uint256"
                },
                {
                  "internalType": "uint256",
                  "name": "salt",
                  "type": "uint256"
                }
              ],
              "indexed": false,
              "internalType": "struct LibPayment.Payment",
              "name": "payment",
              "type": "tuple"
            }
          ],
          "name": "PaymentProcessed",
          "type": "event"
        },
        {
          "inputs": [
            {
              "components": [
                {
                  "internalType": "uint256",
                  "name": "paymentId",
                  "type": "uint256"
                },
                {
                  "internalType": "address",
                  "name": "sender",
                  "type": "address"
                },
                {
                  "internalType": "address",
                  "name": "receiver",
                  "type": "address"
                },
                {
                  "internalType": "address",
                  "name": "token",
                  "type": "address"
                },
                {
                  "internalType": "uint256",
                  "name": "amount",
                  "type": "uint256"
                },
                {
                  "internalType": "address",
                  "name": "executor",
                  "type": "address"
                },
                {
                  "internalType": "address",
                  "name": "feeToken",
                  "type": "address"
                },
                {
                  "internalType": "uint256",
                  "name": "feeAmount",
                  "type": "uint256"
                },
                {
                  "internalType": "uint256",
                  "name": "chainId",
                  "type": "uint256"
                },
                {
                  "internalType": "uint256",
                  "name": "deadline",
                  "type": "uint256"
                },
                {
                  "internalType": "uint256",
                  "name": "salt",
                  "type": "uint256"
                }
              ],
              "internalType": "struct LibPayment.Payment",
              "name": "_payment",
              "type": "tuple"
            },
            {
              "internalType": "bytes",
              "name": "_signature",
              "type": "bytes"
            }
          ],
          "name": "_verify",
          "outputs": [],
          "stateMutability": "view",
          "type": "function"
        },
        {
          "inputs": [
            {
              "components": [
                {
                  "internalType": "uint256",
                  "name": "paymentId",
                  "type": "uint256"
                },
                {
                  "internalType": "address",
                  "name": "sender",
                  "type": "address"
                },
                {
                  "internalType": "address",
                  "name": "receiver",
                  "type": "address"
                },
                {
                  "internalType": "address",
                  "name": "token",
                  "type": "address"
                },
                {
                  "internalType": "uint256",
                  "name": "amount",
                  "type": "uint256"
                },
                {
                  "internalType": "address",
                  "name": "executor",
                  "type": "address"
                },
                {
                  "internalType": "address",
                  "name": "feeToken",
                  "type": "address"
                },
                {
                  "internalType": "uint256",
                  "name": "feeAmount",
                  "type": "uint256"
                },
                {
                  "internalType": "uint256",
                  "name": "chainId",
                  "type": "uint256"
                },
                {
                  "internalType": "uint256",
                  "name": "deadline",
                  "type": "uint256"
                },
                {
                  "internalType": "uint256",
                  "name": "salt",
                  "type": "uint256"
                }
              ],
              "internalType": "struct LibPayment.Payment",
              "name": "_payment",
              "type": "tuple"
            }
          ],
          "name": "cancelPayment",
          "outputs": [],
          "stateMutability": "nonpayable",
          "type": "function"
        },
        {
          "inputs": [],
          "name": "eip712Domain",
          "outputs": [
            {
              "internalType": "bytes1",
              "name": "fields",
              "type": "bytes1"
            },
            {
              "internalType": "string",
              "name": "name",
              "type": "string"
            },
            {
              "internalType": "string",
              "name": "version",
              "type": "string"
            },
            {
              "internalType": "uint256",
              "name": "chainId",
              "type": "uint256"
            },
            {
              "internalType": "address",
              "name": "verifyingContract",
              "type": "address"
            },
            {
              "internalType": "bytes32",
              "name": "salt",
              "type": "bytes32"
            },
            {
              "internalType": "uint256[]",
              "name": "extensions",
              "type": "uint256[]"
            }
          ],
          "stateMutability": "view",
          "type": "function"
        },
        {
          "inputs": [
            {
              "components": [
                {
                  "internalType": "uint256",
                  "name": "paymentId",
                  "type": "uint256"
                },
                {
                  "internalType": "address",
                  "name": "sender",
                  "type": "address"
                },
                {
                  "internalType": "address",
                  "name": "receiver",
                  "type": "address"
                },
                {
                  "internalType": "address",
                  "name": "token",
                  "type": "address"
                },
                {
                  "internalType": "uint256",
                  "name": "amount",
                  "type": "uint256"
                },
                {
                  "internalType": "address",
                  "name": "executor",
                  "type": "address"
                },
                {
                  "internalType": "address",
                  "name": "feeToken",
                  "type": "address"
                },
                {
                  "internalType": "uint256",
                  "name": "feeAmount",
                  "type": "uint256"
                },
                {
                  "internalType": "uint256",
                  "name": "chainId",
                  "type": "uint256"
                },
                {
                  "internalType": "uint256",
                  "name": "deadline",
                  "type": "uint256"
                },
                {
                  "internalType": "uint256",
                  "name": "salt",
                  "type": "uint256"
                }
              ],
              "internalType": "struct LibPayment.Payment",
              "name": "_payment",
              "type": "tuple"
            }
          ],
          "name": "isCanceled",
          "outputs": [
            {
              "internalType": "bool",
              "name": "",
              "type": "bool"
            }
          ],
          "stateMutability": "view",
          "type": "function"
        },
        {
          "inputs": [
            {
              "components": [
                {
                  "internalType": "uint256",
                  "name": "paymentId",
                  "type": "uint256"
                },
                {
                  "internalType": "address",
                  "name": "sender",
                  "type": "address"
                },
                {
                  "internalType": "address",
                  "name": "receiver",
                  "type": "address"
                },
                {
                  "internalType": "address",
                  "name": "token",
                  "type": "address"
                },
                {
                  "internalType": "uint256",
                  "name": "amount",
                  "type": "uint256"
                },
                {
                  "internalType": "address",
                  "name": "executor",
                  "type": "address"
                },
                {
                  "internalType": "address",
                  "name": "feeToken",
                  "type": "address"
                },
                {
                  "internalType": "uint256",
                  "name": "feeAmount",
                  "type": "uint256"
                },
                {
                  "internalType": "uint256",
                  "name": "chainId",
                  "type": "uint256"
                },
                {
                  "internalType": "uint256",
                  "name": "deadline",
                  "type": "uint256"
                },
                {
                  "internalType": "uint256",
                  "name": "salt",
                  "type": "uint256"
                }
              ],
              "internalType": "struct LibPayment.Payment",
              "name": "_payment",
              "type": "tuple"
            }
          ],
          "name": "isProcessed",
          "outputs": [
            {
              "internalType": "bool",
              "name": "",
              "type": "bool"
            }
          ],
          "stateMutability": "view",
          "type": "function"
        },
        {
          "inputs": [
            {
              "components": [
                {
                  "internalType": "uint256",
                  "name": "paymentId",
                  "type": "uint256"
                },
                {
                  "internalType": "address",
                  "name": "sender",
                  "type": "address"
                },
                {
                  "internalType": "address",
                  "name": "receiver",
                  "type": "address"
                },
                {
                  "internalType": "address",
                  "name": "token",
                  "type": "address"
                },
                {
                  "internalType": "uint256",
                  "name": "amount",
                  "type": "uint256"
                },
                {
                  "internalType": "address",
                  "name": "executor",
                  "type": "address"
                },
                {
                  "internalType": "address",
                  "name": "feeToken",
                  "type": "address"
                },
                {
                  "internalType": "uint256",
                  "name": "feeAmount",
                  "type": "uint256"
                },
                {
                  "internalType": "uint256",
                  "name": "chainId",
                  "type": "uint256"
                },
                {
                  "internalType": "uint256",
                  "name": "deadline",
                  "type": "uint256"
                },
                {
                  "internalType": "uint256",
                  "name": "salt",
                  "type": "uint256"
                }
              ],
              "internalType": "struct LibPayment.Payment",
              "name": "_payment",
              "type": "tuple"
            },
            {
              "internalType": "bytes",
              "name": "_signature",
              "type": "bytes"
            },
            {
              "internalType": "address",
              "name": "_feeReceiver",
              "type": "address"
            }
          ],
          "name": "processPayment",
          "outputs": [],
          "stateMutability": "nonpayable",
          "type": "function"
        }
      ],
      "evm": {
        "bytecode": {
          "linkReferences": {},
          "object": "61016060405234801561001157600080fd5b5060408051808201825260078152664a75737450617960c81b602080830191909152825180840190935260018352603160f81b90830152908181610056826000610107565b61012052610065816001610107565b61014052815160208084019190912060e052815190820120610100524660a0526100f260e05161010051604080517f8b73c3c69bb8fe3d512ecc4cf759cc79239f7b179b0ffacaa9a75d522b39400f60208201529081019290925260608201524660808201523060a082015260009060c00160405160208183030381529060405280519060200120905090565b60805250503060c05250506001600455610350565b60006020835110156101235761011c8361013a565b9050610134565b8161012e8482610220565b5060ff90505b92915050565b600080829050601f8151111561016e578260405163305a27a960e01b815260040161016591906102de565b60405180910390fd5b80516101798261032c565b179392505050565b634e487b7160e01b600052604160045260246000fd5b600181811c908216806101ab57607f821691505b6020821081036101cb57634e487b7160e01b600052602260045260246000fd5b50919050565b601f82111561021b57806000526020600020601f840160051c810160208510156101f85750805b601f840160051c820191505b818110156102185760008155600101610204565b50505b505050565b81516001600160401b0381111561023957610239610181565b61024d816102478454610197565b846101d1565b6020601f82116001811461028157600083156102695750848201515b600019600385901b1c1916600184901b178455610218565b600084815260208120601f198516915b828110156102b15787850151825560209485019460019092019101610291565b50848210156102cf5786840151600019600387901b60f8161c191681555b50505050600190811b01905550565b602081526000825180602084015260005b8181101561030c57602081860181015160408684010152016102ef565b506000604082850101526040601f19601f83011684010191505092915050565b805160208083015191908110156101cb5760001960209190910360031b1b16919050565b60805160a05160c05160e0516101005161012051610140516114be6103aa60003960006108da015260006108a801526000610bc201526000610b9a01526000610af501526000610b1f01526000610b4901526114be6000f3fe608060405234801561001057600080fd5b50600436106100625760003560e01c8063599374b4146100675780637a33a5cd1461008f57806384b0196e146100a45780638b38c7d7146100bf5780639744aea3146100d2578063a4255463146100e5575b600080fd5b61007a610075366004611099565b6100f8565b60405190151581526020015b60405180910390f35b6100a261009d366004611145565b610121565b005b6100ac6101e8565b60405161008697969594939291906111f7565b61007a6100cd366004611099565b61022e565b6100a26100e0366004611099565b61023d565b6100a26100f336600461128f565b6102f3565b60006003600061010784610686565b815260208101919091526040016000205460ff1692915050565b61012961077e565b61013383836102f3565b61013c836107a8565b61016c83602001518460400151856080015186606001516001600160a01b0316610847909392919063ffffffff16565b60e0830151156101a2576101a28360200151828560e001518660c001516001600160a01b0316610847909392919063ffffffff16565b7f37f72be18d05dc5234fb3207d1e428e6c060d2ab1000c1ec5a191e63c48ddf79836040516101d191906112e0565b60405180910390a16101e36001600455565b505050565b6000606080600080600060606101fc6108a1565b6102046108d3565b60408051600080825260208201909252600f60f81b9b939a50919850469750309650945092509050565b60006002600061010784610686565b61024561077e565b60208101516001600160a01b031633146102a65760405162461bcd60e51b815260206004820152601c60248201527f4a503a2063616c6c6572206973206e6f74207468652073656e6465720000000060448201526064015b60405180910390fd5b6102af81610900565b7fa67be3c83346acd972f18770d7a7ab3002890a237ec6e45391cf5c7451af8e41816040516102de91906112e0565b60405180910390a16102f06001600455565b50565b6102fc826100f8565b156103495760405162461bcd60e51b815260206004820152601760248201527f50563a207061796d656e742069732063616e63656c6564000000000000000000604482015260640161029d565b6103528261022e565b1561039f5760405162461bcd60e51b815260206004820181905260248201527f50563a207061796d656e7420697320616c72656164792070726f636573736564604482015260640161029d565b60a08201516001600160a01b031615806103c5575060a08201516001600160a01b031633145b6104085760405162461bcd60e51b8152602060048201526014602482015273282b1d1034b73b30b634b21032bc32b1baba37b960611b604482015260640161029d565b46826101000151146104525760405162461bcd60e51b815260206004820152601360248201527214158e881a5b9d985b1a590818da185a5b9259606a1b604482015260640161029d565b4282610120015110156104a05760405162461bcd60e51b815260206004820152601660248201527514158e881c185e5b595b9d081a5cc8195e1c1a5c995960521b604482015260640161029d565b60006104ab83610686565b6020840151909150803b156105ad57630b135d3f60e11b6001600160a01b038216631626ba7e6104da8561097d565b866040518363ffffffff1660e01b81526004016104f89291906113af565b602060405180830381865afa158015610515573d6000803e3d6000fd5b505050506040513d601f19601f8201168201806040525081019061053991906113d0565b6001600160e01b031916146105a85760405162461bcd60e51b815260206004820152602f60248201527f50563a2045524331323731207469636b6574207369676e61747572652076657260448201526e34b334b1b0ba34b7b71032b93937b960891b606482015260840161029d565b610680565b806001600160a01b03166105ca846105c48561097d565b906109b0565b6001600160a01b0316146106365760405162461bcd60e51b815260206004820152602d60248201527f50563a204543445341207469636b6574207369676e617475726520766572696660448201526c34b1b0ba34b7b71032b93937b960991b606482015260840161029d565b6001600160a01b0381166106805760405162461bcd60e51b8152602060048201526011602482015270282b1d1024b73b30b634b21037bbb732b960791b604482015260640161029d565b50505050565b60007fd2e31808e762f5552841690b089e582b71e3ef0c02cd4bf17960ece324d7d99d826000015183602001518460400151856060015186608001518760a001518860c001518960e001518a61010001518b61012001518c61014001516040516020016107619c9b9a999897969594939291909b8c5260208c019a909a526001600160a01b0398891660408c015296881660608b015294871660808a015260a089019390935290851660c088015290931660e08601526101008501929092526101208401919091526101408301526101608201526101800190565b604051602081830303815290604052805190602001209050919050565b6002600454036107a157604051633ee5aeb560e01b815260040160405180910390fd5b6002600455565b600260006107b583610686565b815260208101919091526040016000205460ff16156108165760405162461bcd60e51b815260206004820181905260248201527f50563a207061796d656e7420697320616c72656164792070726f636573736564604482015260640161029d565b60016002600061082584610686565b81526020810191909152604001600020805460ff191691151591909117905550565b604080516001600160a01b0385811660248301528416604482015260648082018490528251808303909101815260849091019091526020810180516001600160e01b03166323b872dd60e01b1790526106809085906109da565b60606108ce7f00000000000000000000000000000000000000000000000000000000000000006000610a3d565b905090565b60606108ce7f00000000000000000000000000000000000000000000000000000000000000006001610a3d565b6003600061090d83610686565b815260208101919091526040016000205460ff161561096e5760405162461bcd60e51b815260206004820152601f60248201527f50563a207061796d656e7420697320616c72656164792063616e63656c656400604482015260640161029d565b60016003600061082584610686565b60006109aa61098a610ae8565b8360405161190160f01b8152600281019290925260228201526042902090565b92915050565b6000806000806109c08686610c13565b9250925092506109d08282610c60565b5090949350505050565b60006109ef6001600160a01b03841683610d1d565b90508051600014158015610a14575080806020019051810190610a1291906113fa565b155b156101e357604051635274afe760e01b81526001600160a01b038416600482015260240161029d565b606060ff8314610a5757610a5083610d32565b90506109aa565b818054610a639061141c565b80601f0160208091040260200160405190810160405280929190818152602001828054610a8f9061141c565b8015610adc5780601f10610ab157610100808354040283529160200191610adc565b820191906000526020600020905b815481529060010190602001808311610abf57829003601f168201915b505050505090506109aa565b6000306001600160a01b037f000000000000000000000000000000000000000000000000000000000000000016148015610b4157507f000000000000000000000000000000000000000000000000000000000000000046145b15610b6b57507f000000000000000000000000000000000000000000000000000000000000000090565b6108ce604080517f8b73c3c69bb8fe3d512ecc4cf759cc79239f7b179b0ffacaa9a75d522b39400f60208201527f0000000000000000000000000000000000000000000000000000000000000000918101919091527f000000000000000000000000000000000000000000000000000000000000000060608201524660808201523060a082015260009060c00160405160208183030381529060405280519060200120905090565b60008060008351604103610c4d5760208401516040850151606086015160001a610c3f88828585610d71565b955095509550505050610c59565b50508151600091506002905b9250925092565b6000826003811115610c7457610c74611456565b03610c7d575050565b6001826003811115610c9157610c91611456565b03610caf5760405163f645eedf60e01b815260040160405180910390fd5b6002826003811115610cc357610cc3611456565b03610ce45760405163fce698f760e01b81526004810182905260240161029d565b6003826003811115610cf857610cf8611456565b03610d19576040516335e2f38360e21b81526004810182905260240161029d565b5050565b6060610d2b83836000610e40565b9392505050565b60606000610d3f83610edd565b604080516020808252818301909252919250600091906020820181803683375050509182525060208101929092525090565b600080807f7fffffffffffffffffffffffffffffff5d576e7357a4501ddfe92f46681b20a0841115610dac5750600091506003905082610e36565b604080516000808252602082018084528a905260ff891692820192909252606081018790526080810186905260019060a0016020604051602081039080840390855afa158015610e00573d6000803e3d6000fd5b5050604051601f1901519150506001600160a01b038116610e2c57506000925060019150829050610e36565b9250600091508190505b9450945094915050565b606081471015610e655760405163cd78605960e01b815230600482015260240161029d565b600080856001600160a01b03168486604051610e81919061146c565b60006040518083038185875af1925050503d8060008114610ebe576040519150601f19603f3d011682016040523d82523d6000602084013e610ec3565b606091505b5091509150610ed3868383610f05565b9695505050505050565b600060ff8216601f8111156109aa57604051632cd44ac360e21b815260040160405180910390fd5b606082610f1a57610f1582610f61565b610d2b565b8151158015610f3157506001600160a01b0384163b155b15610f5a57604051639996b31560e01b81526001600160a01b038516600482015260240161029d565b5080610d2b565b805115610f715780518082602001fd5b604051630a12f52160e11b815260040160405180910390fd5b634e487b7160e01b600052604160045260246000fd5b604051610160810167ffffffffffffffff81118282101715610fc457610fc4610f8a565b60405290565b80356001600160a01b0381168114610fe157600080fd5b919050565b60006101608284031215610ff957600080fd5b611001610fa0565b82358152905061101360208301610fca565b602082015261102460408301610fca565b604082015261103560608301610fca565b60608201526080828101359082015261105060a08301610fca565b60a082015261106160c08301610fca565b60c082015260e08281013590820152610100808301359082015261012080830135908201526101409182013591810191909152919050565b600061016082840312156110ac57600080fd5b610d2b8383610fe6565b600082601f8301126110c757600080fd5b813567ffffffffffffffff8111156110e1576110e1610f8a565b604051601f8201601f19908116603f0116810167ffffffffffffffff8111828210171561111057611110610f8a565b60405281815283820160200185101561112857600080fd5b816020850160208301376000918101602001919091529392505050565b60008060006101a0848603121561115b57600080fd5b6111658585610fe6565b925061016084013567ffffffffffffffff81111561118257600080fd5b61118e868287016110b6565b92505061119e6101808501610fca565b90509250925092565b60005b838110156111c25781810151838201526020016111aa565b50506000910152565b600081518084526111e38160208601602086016111a7565b601f01601f19169290920160200192915050565b60ff60f81b8816815260e06020820152600061121660e08301896111cb565b828103604084015261122881896111cb565b606084018890526001600160a01b038716608085015260a0840186905283810360c08501528451808252602080870193509091019060005b8181101561127e578351835260209384019390920191600101611260565b50909b9a5050505050505050505050565b60008061018083850312156112a357600080fd5b6112ad8484610fe6565b915061016083013567ffffffffffffffff8111156112ca57600080fd5b6112d6858286016110b6565b9150509250929050565b81518152602080830151610160830191611304908401826001600160a01b03169052565b50604083015161131f60408401826001600160a01b03169052565b50606083015161133a60608401826001600160a01b03169052565b506080830151608083015260a083015161135f60a08401826001600160a01b03169052565b5060c083015161137a60c08401826001600160a01b03169052565b5060e083015160e083015261010083015161010083015261012083015161012083015261014083015161014083015292915050565b8281526040602082015260006113c860408301846111cb565b949350505050565b6000602082840312156113e257600080fd5b81516001600160e01b031981168114610d2b57600080fd5b60006020828403121561140c57600080fd5b81518015158114610d2b57600080fd5b600181811c9082168061143057607f821691505b60208210810361145057634e487b7160e01b600052602260045260246000fd5b50919050565b634e487b7160e01b600052602160045260246000fd5b6000825161147e8184602087016111a7565b919091019291505056fea2646970667358221220d0505ec6d1caabe7fcce31cc43c1299e7a87d946e85a70d7405e258bf765587864736f6c634300081a0033",
          "opcodes": "PUSH2 0x160 PUSH1 0x40 MSTORE CALLVALUE DUP1 ISZERO PUSH2 0x11 JUMPI PUSH1 0x0 DUP1 REVERT JUMPDEST POP PUSH1 0x40 DUP1 MLOAD DUP1 DUP3 ADD DUP3 MSTORE PUSH1 0x7 DUP2 MSTORE PUSH7 0x4A757374506179 PUSH1 0xC8 SHL PUSH1 0x20 DUP1 DUP4 ADD SWAP2 SWAP1 SWAP2 MSTORE DUP3 MLOAD DUP1 DUP5 ADD SWAP1 SWAP4 MSTORE PUSH1 0x1 DUP4 MSTORE PUSH1 0x31 PUSH1 0xF8 SHL SWAP1 DUP4 ADD MSTORE SWAP1 DUP2 DUP2 PUSH2 0x56 DUP3 PUSH1 0x0 PUSH2 0x107 JUMP JUMPDEST PUSH2 0x120 MSTORE PUSH2 0x65 DUP2 PUSH1 0x1 PUSH2 0x107 JUMP JUMPDEST PUSH2 0x140 MSTORE DUP2 MLOAD PUSH1 0x20 DUP1 DUP5 ADD SWAP2 SWAP1 SWAP2 KECCAK256 PUSH1 0xE0 MSTORE DUP2 MLOAD SWAP1 DUP3 ADD KECCAK256 PUSH2 0x100 MSTORE CHAINID PUSH1 0xA0 MSTORE PUSH2 0xF2 PUSH1 0xE0 MLOAD PUSH2 0x100 MLOAD PUSH1 0x40 DUP1 MLOAD PUSH32 0x8B73C3C69BB8FE3D512ECC4CF759CC79239F7B179B0FFACAA9A75D522B39400F PUSH1 0x20 DUP3 ADD MSTORE SWAP1 DUP2 ADD SWAP3 SWAP1 SWAP3 MSTORE PUSH1 0x60 DUP3 ADD MSTORE CHAINID PUSH1 0x80 DUP3 ADD MSTORE ADDRESS PUSH1 0xA0 DUP3 ADD MSTORE PUSH1 0x0 SWAP1 PUSH1 0xC0 ADD PUSH1 0x40 MLOAD PUSH1 0x20 DUP2 DUP4 SUB SUB DUP2 MSTORE SWAP1 PUSH1 0x40 MSTORE DUP1 MLOAD SWAP1 PUSH1 0x20 ADD KECCAK256 SWAP1 POP SWAP1 JUMP JUMPDEST PUSH1 0x80 MSTORE POP POP ADDRESS PUSH1 0xC0 MSTORE POP POP PUSH1 0x1 PUSH1 0x4 SSTORE PUSH2 0x350 JUMP JUMPDEST PUSH1 0x0 PUSH1 0x20 DUP4 MLOAD LT ISZERO PUSH2 0x123 JUMPI PUSH2 0x11C DUP4 PUSH2 0x13A JUMP JUMPDEST SWAP1 POP PUSH2 0x134 JUMP JUMPDEST DUP2 PUSH2 0x12E DUP5 DUP3 PUSH2 0x220 JUMP JUMPDEST POP PUSH1 0xFF SWAP1 POP JUMPDEST SWAP3 SWAP2 POP POP JUMP JUMPDEST PUSH1 0x0 DUP1 DUP3 SWAP1 POP PUSH1 0x1F DUP2 MLOAD GT ISZERO PUSH2 0x16E JUMPI DUP3 PUSH1 0x40 MLOAD PUSH4 0x305A27A9 PUSH1 0xE0 SHL DUP2 MSTORE PUSH1 0x4 ADD PUSH2 0x165 SWAP2 SWAP1 PUSH2 0x2DE JUMP JUMPDEST PUSH1 0x40 MLOAD DUP1 SWAP2 SUB SWAP1 REVERT JUMPDEST DUP1 MLOAD PUSH2 0x179 DUP3 PUSH2 0x32C JUMP JUMPDEST OR SWAP4 SWAP3 POP POP POP JUMP JUMPDEST PUSH4 0x4E487B71 PUSH1 0xE0 SHL PUSH1 0x0 MSTORE PUSH1 0x41 PUSH1 0x4 MSTORE PUSH1 0x24 PUSH1 0x0 REVERT JUMPDEST PUSH1 0x1 DUP2 DUP2 SHR SWAP1 DUP3 AND DUP1 PUSH2 0x1AB JUMPI PUSH1 0x7F DUP3 AND SWAP2 POP JUMPDEST PUSH1 0x20 DUP3 LT DUP2 SUB PUSH2 0x1CB JUMPI PUSH4 0x4E487B71 PUSH1 0xE0 SHL PUSH1 0x0 MSTORE PUSH1 0x22 PUSH1 0x4 MSTORE PUSH1 0x24 PUSH1 0x0 REVERT JUMPDEST POP SWAP2 SWAP1 POP JUMP JUMPDEST PUSH1 0x1F DUP3 GT ISZERO PUSH2 0x21B JUMPI DUP1 PUSH1 0x0 MSTORE PUSH1 0x20 PUSH1 0x0 KECCAK256 PUSH1 0x1F DUP5 ADD PUSH1 0x5 SHR DUP2 ADD PUSH1 0x20 DUP6 LT ISZERO PUSH2 0x1F8 JUMPI POP DUP1 JUMPDEST PUSH1 0x1F DUP5 ADD PUSH1 0x5 SHR DUP3 ADD SWAP2 POP JUMPDEST DUP2 DUP2 LT ISZERO PUSH2 0x218 JUMPI PUSH1 0x0 DUP2 SSTORE PUSH1 0x1 ADD PUSH2 0x204 JUMP JUMPDEST POP POP JUMPDEST POP POP POP JUMP JUMPDEST DUP2 MLOAD PUSH1 0x1 PUSH1 0x1 PUSH1 0x40 SHL SUB DUP2 GT ISZERO PUSH2 0x239 JUMPI PUSH2 0x239 PUSH2 0x181 JUMP JUMPDEST PUSH2 0x24D DUP2 PUSH2 0x247 DUP5 SLOAD PUSH2 0x197 JUMP JUMPDEST DUP5 PUSH2 0x1D1 JUMP JUMPDEST PUSH1 0x20 PUSH1 0x1F DUP3 GT PUSH1 0x1 DUP2 EQ PUSH2 0x281 JUMPI PUSH1 0x0 DUP4 ISZERO PUSH2 0x269 JUMPI POP DUP5 DUP3 ADD MLOAD JUMPDEST PUSH1 0x0 NOT PUSH1 0x3 DUP6 SWAP1 SHL SHR NOT AND PUSH1 0x1 DUP5 SWAP1 SHL OR DUP5 SSTORE PUSH2 0x218 JUMP JUMPDEST PUSH1 0x0 DUP5 DUP2 MSTORE PUSH1 0x20 DUP2 KECCAK256 PUSH1 0x1F NOT DUP6 AND SWAP2 JUMPDEST DUP3 DUP2 LT ISZERO PUSH2 0x2B1 JUMPI DUP8 DUP6 ADD MLOAD DUP3 SSTORE PUSH1 0x20 SWAP5 DUP6 ADD SWAP5 PUSH1 0x1 SWAP1 SWAP3 ADD SWAP2 ADD PUSH2 0x291 JUMP JUMPDEST POP DUP5 DUP3 LT ISZERO PUSH2 0x2CF JUMPI DUP7 DUP5 ADD MLOAD PUSH1 0x0 NOT PUSH1 0x3 DUP8 SWAP1 SHL PUSH1 0xF8 AND SHR NOT AND DUP2 SSTORE JUMPDEST POP POP POP POP PUSH1 0x1 SWAP1 DUP2 SHL ADD SWAP1 SSTORE POP JUMP JUMPDEST PUSH1 0x20 DUP2 MSTORE PUSH1 0x0 DUP3 MLOAD DUP1 PUSH1 0x20 DUP5 ADD MSTORE PUSH1 0x0 JUMPDEST DUP2 DUP2 LT ISZERO PUSH2 0x30C JUMPI PUSH1 0x20 DUP2 DUP7 ADD DUP2 ADD MLOAD PUSH1 0x40 DUP7 DUP5 ADD ADD MSTORE ADD PUSH2 0x2EF JUMP JUMPDEST POP PUSH1 0x0 PUSH1 0x40 DUP3 DUP6 ADD ADD MSTORE PUSH1 0x40 PUSH1 0x1F NOT PUSH1 0x1F DUP4 ADD AND DUP5 ADD ADD SWAP2 POP POP SWAP3 SWAP2 POP POP JUMP JUMPDEST DUP1 MLOAD PUSH1 0x20 DUP1 DUP4 ADD MLOAD SWAP2 SWAP1 DUP2 LT ISZERO PUSH2 0x1CB JUMPI PUSH1 0x0 NOT PUSH1 0x20 SWAP2 SWAP1 SWAP2 SUB PUSH1 0x3 SHL SHL AND SWAP2 SWAP1 POP JUMP JUMPDEST PUSH1 0x80 MLOAD PUSH1 0xA0 MLOAD PUSH1 0xC0 MLOAD PUSH1 0xE0 MLOAD PUSH2 0x100 MLOAD PUSH2 0x120 MLOAD PUSH2 0x140 MLOAD PUSH2 0x14BE PUSH2 0x3AA PUSH1 0x0 CODECOPY PUSH1 0x0 PUSH2 0x8DA ADD MSTORE PUSH1 0x0 PUSH2 0x8A8 ADD MSTORE PUSH1 0x0 PUSH2 0xBC2 ADD MSTORE PUSH1 0x0 PUSH2 0xB9A ADD MSTORE PUSH1 0x0 PUSH2 0xAF5 ADD MSTORE PUSH1 0x0 PUSH2 0xB1F ADD MSTORE PUSH1 0x0 PUSH2 0xB49 ADD MSTORE PUSH2 0x14BE PUSH1 0x0 RETURN INVALID PUSH1 0x80 PUSH1 0x40 MSTORE CALLVALUE DUP1 ISZERO PUSH2 0x10 JUMPI PUSH1 0x0 DUP1 REVERT JUMPDEST POP PUSH1 0x4 CALLDATASIZE LT PUSH2 0x62 JUMPI PUSH1 0x0 CALLDATALOAD PUSH1 0xE0 SHR DUP1 PUSH4 0x599374B4 EQ PUSH2 0x67 JUMPI DUP1 PUSH4 0x7A33A5CD EQ PUSH2 0x8F JUMPI DUP1 PUSH4 0x84B0196E EQ PUSH2 0xA4 JUMPI DUP1 PUSH4 0x8B38C7D7 EQ PUSH2 0xBF JUMPI DUP1 PUSH4 0x9744AEA3 EQ PUSH2 0xD2 JUMPI DUP1 PUSH4 0xA4255463 EQ PUSH2 0xE5 JUMPI JUMPDEST PUSH1 0x0 DUP1 REVERT JUMPDEST PUSH2 0x7A PUSH2 0x75 CALLDATASIZE PUSH1 0x4 PUSH2 0x1099 JUMP JUMPDEST PUSH2 0xF8 JUMP JUMPDEST PUSH1 0x40 MLOAD SWAP1 ISZERO ISZERO DUP2 MSTORE PUSH1 0x20 ADD JUMPDEST PUSH1 0x40 MLOAD DUP1 SWAP2 SUB SWAP1 RETURN JUMPDEST PUSH2 0xA2 PUSH2 0x9D CALLDATASIZE PUSH1 0x4 PUSH2 0x1145 JUMP JUMPDEST PUSH2 0x121 JUMP JUMPDEST STOP JUMPDEST PUSH2 0xAC PUSH2 0x1E8 JUMP JUMPDEST PUSH1 0x40 MLOAD PUSH2 0x86 SWAP8 SWAP7 SWAP6 SWAP5 SWAP4 SWAP3 SWAP2 SWAP1 PUSH2 0x11F7 JUMP JUMPDEST PUSH2 0x7A PUSH2 0xCD CALLDATASIZE PUSH1 0x4 PUSH2 0x1099 JUMP JUMPDEST PUSH2 0x22E JUMP JUMPDEST PUSH2 0xA2 PUSH2 0xE0 CALLDATASIZE PUSH1 0x4 PUSH2 0x1099 JUMP JUMPDEST PUSH2 0x23D JUMP JUMPDEST PUSH2 0xA2 PUSH2 0xF3 CALLDATASIZE PUSH1 0x4 PUSH2 0x128F JUMP JUMPDEST PUSH2 0x2F3 JUMP JUMPDEST PUSH1 0x0 PUSH1 0x3 PUSH1 0x0 PUSH2 0x107 DUP5 PUSH2 0x686 JUMP JUMPDEST DUP2 MSTORE PUSH1 0x20 DUP2 ADD SWAP2 SWAP1 SWAP2 MSTORE PUSH1 0x40 ADD PUSH1 0x0 KECCAK256 SLOAD PUSH1 0xFF AND SWAP3 SWAP2 POP POP JUMP JUMPDEST PUSH2 0x129 PUSH2 0x77E JUMP JUMPDEST PUSH2 0x133 DUP4 DUP4 PUSH2 0x2F3 JUMP JUMPDEST PUSH2 0x13C DUP4 PUSH2 0x7A8 JUMP JUMPDEST PUSH2 0x16C DUP4 PUSH1 0x20 ADD MLOAD DUP5 PUSH1 0x40 ADD MLOAD DUP6 PUSH1 0x80 ADD MLOAD DUP7 PUSH1 0x60 ADD MLOAD PUSH1 0x1 PUSH1 0x1 PUSH1 0xA0 SHL SUB AND PUSH2 0x847 SWAP1 SWAP4 SWAP3 SWAP2 SWAP1 PUSH4 0xFFFFFFFF AND JUMP JUMPDEST PUSH1 0xE0 DUP4 ADD MLOAD ISZERO PUSH2 0x1A2 JUMPI PUSH2 0x1A2 DUP4 PUSH1 0x20 ADD MLOAD DUP3 DUP6 PUSH1 0xE0 ADD MLOAD DUP7 PUSH1 0xC0 ADD MLOAD PUSH1 0x1 PUSH1 0x1 PUSH1 0xA0 SHL SUB AND PUSH2 0x847 SWAP1 SWAP4 SWAP3 SWAP2 SWAP1 PUSH4 0xFFFFFFFF AND JUMP JUMPDEST PUSH32 0x37F72BE18D05DC5234FB3207D1E428E6C060D2AB1000C1EC5A191E63C48DDF79 DUP4 PUSH1 0x40 MLOAD PUSH2 0x1D1 SWAP2 SWAP1 PUSH2 0x12E0 JUMP JUMPDEST PUSH1 0x40 MLOAD DUP1 SWAP2 SUB SWAP1 LOG1 PUSH2 0x1E3 PUSH1 0x1 PUSH1 0x4 SSTORE JUMP JUMPDEST POP POP POP JUMP JUMPDEST PUSH1 0x0 PUSH1 0x60 DUP1 PUSH1 0x0 DUP1 PUSH1 0x0 PUSH1 0x60 PUSH2 0x1FC PUSH2 0x8A1 JUMP JUMPDEST PUSH2 0x204 PUSH2 0x8D3 JUMP JUMPDEST PUSH1 0x40 DUP1 MLOAD PUSH1 0x0 DUP1 DUP3 MSTORE PUSH1 0x20 DUP3 ADD SWAP1 SWAP3 MSTORE PUSH1 0xF PUSH1 0xF8 SHL SWAP12 SWAP4 SWAP11 POP SWAP2 SWAP9 POP CHAINID SWAP8 POP ADDRESS SWAP7 POP SWAP5 POP SWAP3 POP SWAP1 POP JUMP JUMPDEST PUSH1 0x0 PUSH1 0x2 PUSH1 0x0 PUSH2 0x107 DUP5 PUSH2 0x686 JUMP JUMPDEST PUSH2 0x245 PUSH2 0x77E JUMP JUMPDEST PUSH1 0x20 DUP2 ADD MLOAD PUSH1 0x1 PUSH1 0x1 PUSH1 0xA0 SHL SUB AND CALLER EQ PUSH2 0x2A6 JUMPI PUSH1 0x40 MLOAD PUSH3 0x461BCD PUSH1 0xE5 SHL DUP2 MSTORE PUSH1 0x20 PUSH1 0x4 DUP3 ADD MSTORE PUSH1 0x1C PUSH1 0x24 DUP3 ADD MSTORE PUSH32 0x4A503A2063616C6C6572206973206E6F74207468652073656E64657200000000 PUSH1 0x44 DUP3 ADD MSTORE PUSH1 0x64 ADD JUMPDEST PUSH1 0x40 MLOAD DUP1 SWAP2 SUB SWAP1 REVERT JUMPDEST PUSH2 0x2AF DUP2 PUSH2 0x900 JUMP JUMPDEST PUSH32 0xA67BE3C83346ACD972F18770D7A7AB3002890A237EC6E45391CF5C7451AF8E41 DUP2 PUSH1 0x40 MLOAD PUSH2 0x2DE SWAP2 SWAP1 PUSH2 0x12E0 JUMP JUMPDEST PUSH1 0x40 MLOAD DUP1 SWAP2 SUB SWAP1 LOG1 PUSH2 0x2F0 PUSH1 0x1 PUSH1 0x4 SSTORE JUMP JUMPDEST POP JUMP JUMPDEST PUSH2 0x2FC DUP3 PUSH2 0xF8 JUMP JUMPDEST ISZERO PUSH2 0x349 JUMPI PUSH1 0x40 MLOAD PUSH3 0x461BCD PUSH1 0xE5 SHL DUP2 MSTORE PUSH1 0x20 PUSH1 0x4 DUP3 ADD MSTORE PUSH1 0x17 PUSH1 0x24 DUP3 ADD MSTORE PUSH32 0x50563A207061796D656E742069732063616E63656C6564000000000000000000 PUSH1 0x44 DUP3 ADD MSTORE PUSH1 0x64 ADD PUSH2 0x29D JUMP JUMPDEST PUSH2 0x352 DUP3 PUSH2 0x22E JUMP JUMPDEST ISZERO PUSH2 0x39F JUMPI PUSH1 0x40 MLOAD PUSH3 0x461BCD PUSH1 0xE5 SHL DUP2 MSTORE PUSH1 0x20 PUSH1 0x4 DUP3 ADD DUP2 SWAP1 MSTORE PUSH1 0x24 DUP3 ADD MSTORE PUSH32 0x50563A207061796D656E7420697320616C72656164792070726F636573736564 PUSH1 0x44 DUP3 ADD MSTORE PUSH1 0x64 ADD PUSH2 0x29D JUMP JUMPDEST PUSH1 0xA0 DUP3 ADD MLOAD PUSH1 0x1 PUSH1 0x1 PUSH1 0xA0 SHL SUB AND ISZERO DUP1 PUSH2 0x3C5 JUMPI POP PUSH1 0xA0 DUP3 ADD MLOAD PUSH1 0x1 PUSH1 0x1 PUSH1 0xA0 SHL SUB AND CALLER EQ JUMPDEST PUSH2 0x408 JUMPI PUSH1 0x40 MLOAD PUSH3 0x461BCD PUSH1 0xE5 SHL DUP2 MSTORE PUSH1 0x20 PUSH1 0x4 DUP3 ADD MSTORE PUSH1 0x14 PUSH1 0x24 DUP3 ADD MSTORE PUSH20 0x282B1D1034B73B30B634B21032BC32B1BABA37B9 PUSH1 0x61 SHL PUSH1 0x44 DUP3 ADD MSTORE PUSH1 0x64 ADD PUSH2 0x29D JUMP JUMPDEST CHAINID DUP3 PUSH2 0x100 ADD MLOAD EQ PUSH2 0x452 JUMPI PUSH1 0x40 MLOAD PUSH3 0x461BCD PUSH1 0xE5 SHL DUP2 MSTORE PUSH1 0x20 PUSH1 0x4 DUP3 ADD MSTORE PUSH1 0x13 PUSH1 0x24 DUP3 ADD MSTORE PUSH19 0x14158E881A5B9D985B1A590818DA185A5B9259 PUSH1 0x6A SHL PUSH1 0x44 DUP3 ADD MSTORE PUSH1 0x64 ADD PUSH2 0x29D JUMP JUMPDEST TIMESTAMP DUP3 PUSH2 0x120 ADD MLOAD LT ISZERO PUSH2 0x4A0 JUMPI PUSH1 0x40 MLOAD PUSH3 0x461BCD PUSH1 0xE5 SHL DUP2 MSTORE PUSH1 0x20 PUSH1 0x4 DUP3 ADD MSTORE PUSH1 0x16 PUSH1 0x24 DUP3 ADD MSTORE PUSH22 0x14158E881C185E5B595B9D081A5CC8195E1C1A5C9959 PUSH1 0x52 SHL PUSH1 0x44 DUP3 ADD MSTORE PUSH1 0x64 ADD PUSH2 0x29D JUMP JUMPDEST PUSH1 0x0 PUSH2 0x4AB DUP4 PUSH2 0x686 JUMP JUMPDEST PUSH1 0x20 DUP5 ADD MLOAD SWAP1 SWAP2 POP DUP1 EXTCODESIZE ISZERO PUSH2 0x5AD JUMPI PUSH4 0xB135D3F PUSH1 0xE1 SHL PUSH1 0x1 PUSH1 0x1 PUSH1 0xA0 SHL SUB DUP3 AND PUSH4 0x1626BA7E PUSH2 0x4DA DUP6 PUSH2 0x97D JUMP JUMPDEST DUP7 PUSH1 0x40 MLOAD DUP4 PUSH4 0xFFFFFFFF AND PUSH1 0xE0 SHL DUP2 MSTORE PUSH1 0x4 ADD PUSH2 0x4F8 SWAP3 SWAP2 SWAP1 PUSH2 0x13AF JUMP JUMPDEST PUSH1 0x20 PUSH1 0x40 MLOAD DUP1 DUP4 SUB DUP2 DUP7 GAS STATICCALL ISZERO DUP1 ISZERO PUSH2 0x515 JUMPI RETURNDATASIZE PUSH1 0x0 DUP1 RETURNDATACOPY RETURNDATASIZE PUSH1 0x0 REVERT JUMPDEST POP POP POP POP PUSH1 0x40 MLOAD RETURNDATASIZE PUSH1 0x1F NOT PUSH1 0x1F DUP3 ADD AND DUP3 ADD DUP1 PUSH1 0x40 MSTORE POP DUP2 ADD SWAP1 PUSH2 0x539 SWAP2 SWAP1 PUSH2 0x13D0 JUMP JUMPDEST PUSH1 0x1 PUSH1 0x1 PUSH1 0xE0 SHL SUB NOT AND EQ PUSH2 0x5A8 JUMPI PUSH1 0x40 MLOAD PUSH3 0x461BCD PUSH1 0xE5 SHL DUP2 MSTORE PUSH1 0x20 PUSH1 0x4 DUP3 ADD MSTORE PUSH1 0x2F PUSH1 0x24 DUP3 ADD MSTORE PUSH32 0x50563A2045524331323731207469636B6574207369676E617475726520766572 PUSH1 0x44 DUP3 ADD MSTORE PUSH15 0x34B334B1B0BA34B7B71032B93937B9 PUSH1 0x89 SHL PUSH1 0x64 DUP3 ADD MSTORE PUSH1 0x84 ADD PUSH2 0x29D JUMP JUMPDEST PUSH2 0x680 JUMP JUMPDEST DUP1 PUSH1 0x1 PUSH1 0x1 PUSH1 0xA0 SHL SUB AND PUSH2 0x5CA DUP5 PUSH2 0x5C4 DUP6 PUSH2 0x97D JUMP JUMPDEST SWAP1 PUSH2 0x9B0 JUMP JUMPDEST PUSH1 0x1 PUSH1 0x1 PUSH1 0xA0 SHL SUB AND EQ PUSH2 0x636 JUMPI PUSH1 0x40 MLOAD PUSH3 0x461BCD PUSH1 0xE5 SHL DUP2 MSTORE PUSH1 0x20 PUSH1 0x4 DUP3 ADD MSTORE PUSH1 0x2D PUSH1 0x24 DUP3 ADD MSTORE PUSH32 0x50563A204543445341207469636B6574207369676E6174757265207665726966 PUSH1 0x44 DUP3 ADD MSTORE PUSH13 0x34B1B0BA34B7B71032B93937B9 PUSH1 0x99 SHL PUSH1 0x64 DUP3 ADD MSTORE PUSH1 0x84 ADD PUSH2 0x29D JUMP JUMPDEST PUSH1 0x1 PUSH1 0x1 PUSH1 0xA0 SHL SUB DUP2 AND PUSH2 0x680 JUMPI PUSH1 0x40 MLOAD PUSH3 0x461BCD PUSH1 0xE5 SHL DUP2 MSTORE PUSH1 0x20 PUSH1 0x4 DUP3 ADD MSTORE PUSH1 0x11 PUSH1 0x24 DUP3 ADD MSTORE PUSH17 0x282B1D1024B73B30B634B21037BBB732B9 PUSH1 0x79 SHL PUSH1 0x44 DUP3 ADD MSTORE PUSH1 0x64 ADD PUSH2 0x29D JUMP JUMPDEST POP POP POP POP JUMP JUMPDEST PUSH1 0x0 PUSH32 0xD2E31808E762F5552841690B089E582B71E3EF0C02CD4BF17960ECE324D7D99D DUP3 PUSH1 0x0 ADD MLOAD DUP4 PUSH1 0x20 ADD MLOAD DUP5 PUSH1 0x40 ADD MLOAD DUP6 PUSH1 0x60 ADD MLOAD DUP7 PUSH1 0x80 ADD MLOAD DUP8 PUSH1 0xA0 ADD MLOAD DUP9 PUSH1 0xC0 ADD MLOAD DUP10 PUSH1 0xE0 ADD MLOAD DUP11 PUSH2 0x100 ADD MLOAD DUP12 PUSH2 0x120 ADD MLOAD DUP13 PUSH2 0x140 ADD MLOAD PUSH1 0x40 MLOAD PUSH1 0x20 ADD PUSH2 0x761 SWAP13 SWAP12 SWAP11 SWAP10 SWAP9 SWAP8 SWAP7 SWAP6 SWAP5 SWAP4 SWAP3 SWAP2 SWAP1 SWAP12 DUP13 MSTORE PUSH1 0x20 DUP13 ADD SWAP11 SWAP1 SWAP11 MSTORE PUSH1 0x1 PUSH1 0x1 PUSH1 0xA0 SHL SUB SWAP9 DUP10 AND PUSH1 0x40 DUP13 ADD MSTORE SWAP7 DUP9 AND PUSH1 0x60 DUP12 ADD MSTORE SWAP5 DUP8 AND PUSH1 0x80 DUP11 ADD MSTORE PUSH1 0xA0 DUP10 ADD SWAP4 SWAP1 SWAP4 MSTORE SWAP1 DUP6 AND PUSH1 0xC0 DUP9 ADD MSTORE SWAP1 SWAP4 AND PUSH1 0xE0 DUP7 ADD MSTORE PUSH2 0x100 DUP6 ADD SWAP3 SWAP1 SWAP3 MSTORE PUSH2 0x120 DUP5 ADD SWAP2 SWAP1 SWAP2 MSTORE PUSH2 0x140 DUP4 ADD MSTORE PUSH2 0x160 DUP3 ADD MSTORE PUSH2 0x180 ADD SWAP1 JUMP JUMPDEST PUSH1 0x40 MLOAD PUSH1 0x20 DUP2 DUP4 SUB SUB DUP2 MSTORE SWAP1 PUSH1 0x40 MSTORE DUP1 MLOAD SWAP1 PUSH1 0x20 ADD KECCAK256 SWAP1 POP SWAP2 SWAP1 POP JUMP JUMPDEST PUSH1 0x2 PUSH1 0x4 SLOAD SUB PUSH2 0x7A1 JUMPI PUSH1 0x40 MLOAD PUSH4 0x3EE5AEB5 PUSH1 0xE0 SHL DUP2 MSTORE PUSH1 0x4 ADD PUSH1 0x40 MLOAD DUP1 SWAP2 SUB SWAP1 REVERT JUMPDEST PUSH1 0x2 PUSH1 0x4 SSTORE JUMP JUMPDEST PUSH1 0x2 PUSH1 0x0 PUSH2 0x7B5 DUP4 PUSH2 0x686 JUMP JUMPDEST DUP2 MSTORE PUSH1 0x20 DUP2 ADD SWAP2 SWAP1 SWAP2 MSTORE PUSH1 0x40 ADD PUSH1 0x0 KECCAK256 SLOAD PUSH1 0xFF AND ISZERO PUSH2 0x816 JUMPI PUSH1 0x40 MLOAD PUSH3 0x461BCD PUSH1 0xE5 SHL DUP2 MSTORE PUSH1 0x20 PUSH1 0x4 DUP3 ADD DUP2 SWAP1 MSTORE PUSH1 0x24 DUP3 ADD MSTORE PUSH32 0x50563A207061796D656E7420697320616C72656164792070726F636573736564 PUSH1 0x44 DUP3 ADD MSTORE PUSH1 0x64 ADD PUSH2 0x29D JUMP JUMPDEST PUSH1 0x1 PUSH1 0x2 PUSH1 0x0 PUSH2 0x825 DUP5 PUSH2 0x686 JUMP JUMPDEST DUP2 MSTORE PUSH1 0x20 DUP2 ADD SWAP2 SWAP1 SWAP2 MSTORE PUSH1 0x40 ADD PUSH1 0x0 KECCAK256 DUP1 SLOAD PUSH1 0xFF NOT AND SWAP2 ISZERO ISZERO SWAP2 SWAP1 SWAP2 OR SWAP1 SSTORE POP JUMP JUMPDEST PUSH1 0x40 DUP1 MLOAD PUSH1 0x1 PUSH1 0x1 PUSH1 0xA0 SHL SUB DUP6 DUP2 AND PUSH1 0x24 DUP4 ADD MSTORE DUP5 AND PUSH1 0x44 DUP3 ADD MSTORE PUSH1 0x64 DUP1 DUP3 ADD DUP5 SWAP1 MSTORE DUP3 MLOAD DUP1 DUP4 SUB SWAP1 SWAP2 ADD DUP2 MSTORE PUSH1 0x84 SWAP1 SWAP2 ADD SWAP1 SWAP2 MSTORE PUSH1 0x20 DUP2 ADD DUP1 MLOAD PUSH1 0x1 PUSH1 0x1 PUSH1 0xE0 SHL SUB AND PUSH4 0x23B872DD PUSH1 0xE0 SHL OR SWAP1 MSTORE PUSH2 0x680 SWAP1 DUP6 SWAP1 PUSH2 0x9DA JUMP JUMPDEST PUSH1 0x60 PUSH2 0x8CE PUSH32 0x0 PUSH1 0x0 PUSH2 0xA3D JUMP JUMPDEST SWAP1 POP SWAP1 JUMP JUMPDEST PUSH1 0x60 PUSH2 0x8CE PUSH32 0x0 PUSH1 0x1 PUSH2 0xA3D JUMP JUMPDEST PUSH1 0x3 PUSH1 0x0 PUSH2 0x90D DUP4 PUSH2 0x686 JUMP JUMPDEST DUP2 MSTORE PUSH1 0x20 DUP2 ADD SWAP2 SWAP1 SWAP2 MSTORE PUSH1 0x40 ADD PUSH1 0x0 KECCAK256 SLOAD PUSH1 0xFF AND ISZERO PUSH2 0x96E JUMPI PUSH1 0x40 MLOAD PUSH3 0x461BCD PUSH1 0xE5 SHL DUP2 MSTORE PUSH1 0x20 PUSH1 0x4 DUP3 ADD MSTORE PUSH1 0x1F PUSH1 0x24 DUP3 ADD MSTORE PUSH32 0x50563A207061796D656E7420697320616C72656164792063616E63656C656400 PUSH1 0x44 DUP3 ADD MSTORE PUSH1 0x64 ADD PUSH2 0x29D JUMP JUMPDEST PUSH1 0x1 PUSH1 0x3 PUSH1 0x0 PUSH2 0x825 DUP5 PUSH2 0x686 JUMP JUMPDEST PUSH1 0x0 PUSH2 0x9AA PUSH2 0x98A PUSH2 0xAE8 JUMP JUMPDEST DUP4 PUSH1 0x40 MLOAD PUSH2 0x1901 PUSH1 0xF0 SHL DUP2 MSTORE PUSH1 0x2 DUP2 ADD SWAP3 SWAP1 SWAP3 MSTORE PUSH1 0x22 DUP3 ADD MSTORE PUSH1 0x42 SWAP1 KECCAK256 SWAP1 JUMP JUMPDEST SWAP3 SWAP2 POP POP JUMP JUMPDEST PUSH1 0x0 DUP1 PUSH1 0x0 DUP1 PUSH2 0x9C0 DUP7 DUP7 PUSH2 0xC13 JUMP JUMPDEST SWAP3 POP SWAP3 POP SWAP3 POP PUSH2 0x9D0 DUP3 DUP3 PUSH2 0xC60 JUMP JUMPDEST POP SWAP1 SWAP5 SWAP4 POP POP POP POP JUMP JUMPDEST PUSH1 0x0 PUSH2 0x9EF PUSH1 0x1 PUSH1 0x1 PUSH1 0xA0 SHL SUB DUP5 AND DUP4 PUSH2 0xD1D JUMP JUMPDEST SWAP1 POP DUP1 MLOAD PUSH1 0x0 EQ ISZERO DUP1 ISZERO PUSH2 0xA14 JUMPI POP DUP1 DUP1 PUSH1 0x20 ADD SWAP1 MLOAD DUP2 ADD SWAP1 PUSH2 0xA12 SWAP2 SWAP1 PUSH2 0x13FA JUMP JUMPDEST ISZERO JUMPDEST ISZERO PUSH2 0x1E3 JUMPI PUSH1 0x40 MLOAD PUSH4 0x5274AFE7 PUSH1 0xE0 SHL DUP2 MSTORE PUSH1 0x1 PUSH1 0x1 PUSH1 0xA0 SHL SUB DUP5 AND PUSH1 0x4 DUP3 ADD MSTORE PUSH1 0x24 ADD PUSH2 0x29D JUMP JUMPDEST PUSH1 0x60 PUSH1 0xFF DUP4 EQ PUSH2 0xA57 JUMPI PUSH2 0xA50 DUP4 PUSH2 0xD32 JUMP JUMPDEST SWAP1 POP PUSH2 0x9AA JUMP JUMPDEST DUP2 DUP1 SLOAD PUSH2 0xA63 SWAP1 PUSH2 0x141C JUMP JUMPDEST DUP1 PUSH1 0x1F ADD PUSH1 0x20 DUP1 SWAP2 DIV MUL PUSH1 0x20 ADD PUSH1 0x40 MLOAD SWAP1 DUP2 ADD PUSH1 0x40 MSTORE DUP1 SWAP3 SWAP2 SWAP1 DUP2 DUP2 MSTORE PUSH1 0x20 ADD DUP3 DUP1 SLOAD PUSH2 0xA8F SWAP1 PUSH2 0x141C JUMP JUMPDEST DUP1 ISZERO PUSH2 0xADC JUMPI DUP1 PUSH1 0x1F LT PUSH2 0xAB1 JUMPI PUSH2 0x100 DUP1 DUP4 SLOAD DIV MUL DUP4 MSTORE SWAP2 PUSH1 0x20 ADD SWAP2 PUSH2 0xADC JUMP JUMPDEST DUP3 ADD SWAP2 SWAP1 PUSH1 0x0 MSTORE PUSH1 0x20 PUSH1 0x0 KECCAK256 SWAP1 JUMPDEST DUP2 SLOAD DUP2 MSTORE SWAP1 PUSH1 0x1 ADD SWAP1 PUSH1 0x20 ADD DUP1 DUP4 GT PUSH2 0xABF JUMPI DUP3 SWAP1 SUB PUSH1 0x1F AND DUP3 ADD SWAP2 JUMPDEST POP POP POP POP POP SWAP1 POP PUSH2 0x9AA JUMP JUMPDEST PUSH1 0x0 ADDRESS PUSH1 0x1 PUSH1 0x1 PUSH1 0xA0 SHL SUB PUSH32 0x0 AND EQ DUP1 ISZERO PUSH2 0xB41 JUMPI POP PUSH32 0x0 CHAINID EQ JUMPDEST ISZERO PUSH2 0xB6B JUMPI POP PUSH32 0x0 SWAP1 JUMP JUMPDEST PUSH2 0x8CE PUSH1 0x40 DUP1 MLOAD PUSH32 0x8B73C3C69BB8FE3D512ECC4CF759CC79239F7B179B0FFACAA9A75D522B39400F PUSH1 0x20 DUP3 ADD MSTORE PUSH32 0x0 SWAP2 DUP2 ADD SWAP2 SWAP1 SWAP2 MSTORE PUSH32 0x0 PUSH1 0x60 DUP3 ADD MSTORE CHAINID PUSH1 0x80 DUP3 ADD MSTORE ADDRESS PUSH1 0xA0 DUP3 ADD MSTORE PUSH1 0x0 SWAP1 PUSH1 0xC0 ADD PUSH1 0x40 MLOAD PUSH1 0x20 DUP2 DUP4 SUB SUB DUP2 MSTORE SWAP1 PUSH1 0x40 MSTORE DUP1 MLOAD SWAP1 PUSH1 0x20 ADD KECCAK256 SWAP1 POP SWAP1 JUMP JUMPDEST PUSH1 0x0 DUP1 PUSH1 0x0 DUP4 MLOAD PUSH1 0x41 SUB PUSH2 0xC4D JUMPI PUSH1 0x20 DUP5 ADD MLOAD PUSH1 0x40 DUP6 ADD MLOAD PUSH1 0x60 DUP7 ADD MLOAD PUSH1 0x0 BYTE PUSH2 0xC3F DUP9 DUP3 DUP6 DUP6 PUSH2 0xD71 JUMP JUMPDEST SWAP6 POP SWAP6 POP SWAP6 POP POP POP POP PUSH2 0xC59 JUMP JUMPDEST POP POP DUP2 MLOAD PUSH1 0x0 SWAP2 POP PUSH1 0x2 SWAP1 JUMPDEST SWAP3 POP SWAP3 POP SWAP3 JUMP JUMPDEST PUSH1 0x0 DUP3 PUSH1 0x3 DUP2 GT ISZERO PUSH2 0xC74 JUMPI PUSH2 0xC74 PUSH2 0x1456 JUMP JUMPDEST SUB PUSH2 0xC7D JUMPI POP POP JUMP JUMPDEST PUSH1 0x1 DUP3 PUSH1 0x3 DUP2 GT ISZERO PUSH2 0xC91 JUMPI PUSH2 0xC91 PUSH2 0x1456 JUMP JUMPDEST SUB PUSH2 0xCAF JUMPI PUSH1 0x40 MLOAD PUSH4 0xF645EEDF PUSH1 0xE0 SHL DUP2 MSTORE PUSH1 0x4 ADD PUSH1 0x40 MLOAD DUP1 SWAP2 SUB SWAP1 REVERT JUMPDEST PUSH1 0x2 DUP3 PUSH1 0x3 DUP2 GT ISZERO PUSH2 0xCC3 JUMPI PUSH2 0xCC3 PUSH2 0x1456 JUMP JUMPDEST SUB PUSH2 0xCE4 JUMPI PUSH1 0x40 MLOAD PUSH4 0xFCE698F7 PUSH1 0xE0 SHL DUP2 MSTORE PUSH1 0x4 DUP2 ADD DUP3 SWAP1 MSTORE PUSH1 0x24 ADD PUSH2 0x29D JUMP JUMPDEST PUSH1 0x3 DUP3 PUSH1 0x3 DUP2 GT ISZERO PUSH2 0xCF8 JUMPI PUSH2 0xCF8 PUSH2 0x1456 JUMP JUMPDEST SUB PUSH2 0xD19 JUMPI PUSH1 0x40 MLOAD PUSH4 0x35E2F383 PUSH1 0xE2 SHL DUP2 MSTORE PUSH1 0x4 DUP2 ADD DUP3 SWAP1 MSTORE PUSH1 0x24 ADD PUSH2 0x29D JUMP JUMPDEST POP POP JUMP JUMPDEST PUSH1 0x60 PUSH2 0xD2B DUP4 DUP4 PUSH1 0x0 PUSH2 0xE40 JUMP JUMPDEST SWAP4 SWAP3 POP POP POP JUMP JUMPDEST PUSH1 0x60 PUSH1 0x0 PUSH2 0xD3F DUP4 PUSH2 0xEDD JUMP JUMPDEST PUSH1 0x40 DUP1 MLOAD PUSH1 0x20 DUP1 DUP3 MSTORE DUP2 DUP4 ADD SWAP1 SWAP3 MSTORE SWAP2 SWAP3 POP PUSH1 0x0 SWAP2 SWAP1 PUSH1 0x20 DUP3 ADD DUP2 DUP1 CALLDATASIZE DUP4 CALLDATACOPY POP POP POP SWAP2 DUP3 MSTORE POP PUSH1 0x20 DUP2 ADD SWAP3 SWAP1 SWAP3 MSTORE POP SWAP1 JUMP JUMPDEST PUSH1 0x0 DUP1 DUP1 PUSH32 0x7FFFFFFFFFFFFFFFFFFFFFFFFFFFFFFF5D576E7357A4501DDFE92F46681B20A0 DUP5 GT ISZERO PUSH2 0xDAC JUMPI POP PUSH1 0x0 SWAP2 POP PUSH1 0x3 SWAP1 POP DUP3 PUSH2 0xE36 JUMP JUMPDEST PUSH1 0x40 DUP1 MLOAD PUSH1 0x0 DUP1 DUP3 MSTORE PUSH1 0x20 DUP3 ADD DUP1 DUP5 MSTORE DUP11 SWAP1 MSTORE PUSH1 0xFF DUP10 AND SWAP3 DUP3 ADD SWAP3 SWAP1 SWAP3 MSTORE PUSH1 0x60 DUP2 ADD DUP8 SWAP1 MSTORE PUSH1 0x80 DUP2 ADD DUP7 SWAP1 MSTORE PUSH1 0x1 SWAP1 PUSH1 0xA0 ADD PUSH1 0x20 PUSH1 0x40 MLOAD PUSH1 0x20 DUP2 SUB SWAP1 DUP1 DUP5 SUB SWAP1 DUP6 GAS STATICCALL ISZERO DUP1 ISZERO PUSH2 0xE00 JUMPI RETURNDATASIZE PUSH1 0x0 DUP1 RETURNDATACOPY RETURNDATASIZE PUSH1 0x0 REVERT JUMPDEST POP POP PUSH1 0x40 MLOAD PUSH1 0x1F NOT ADD MLOAD SWAP2 POP POP PUSH1 0x1 PUSH1 0x1 PUSH1 0xA0 SHL SUB DUP2 AND PUSH2 0xE2C JUMPI POP PUSH1 0x0 SWAP3 POP PUSH1 0x1 SWAP2 POP DUP3 SWAP1 POP PUSH2 0xE36 JUMP JUMPDEST SWAP3 POP PUSH1 0x0 SWAP2 POP DUP2 SWAP1 POP JUMPDEST SWAP5 POP SWAP5 POP SWAP5 SWAP2 POP POP JUMP JUMPDEST PUSH1 0x60 DUP2 SELFBALANCE LT ISZERO PUSH2 0xE65 JUMPI PUSH1 0x40 MLOAD PUSH4 0xCD786059 PUSH1 0xE0 SHL DUP2 MSTORE ADDRESS PUSH1 0x4 DUP3 ADD MSTORE PUSH1 0x24 ADD PUSH2 0x29D JUMP JUMPDEST PUSH1 0x0 DUP1 DUP6 PUSH1 0x1 PUSH1 0x1 PUSH1 0xA0 SHL SUB AND DUP5 DUP7 PUSH1 0x40 MLOAD PUSH2 0xE81 SWAP2 SWAP1 PUSH2 0x146C JUMP JUMPDEST PUSH1 0x0 PUSH1 0x40 MLOAD DUP1 DUP4 SUB DUP2 DUP6 DUP8 GAS CALL SWAP3 POP POP POP RETURNDATASIZE DUP1 PUSH1 0x0 DUP2 EQ PUSH2 0xEBE JUMPI PUSH1 0x40 MLOAD SWAP2 POP PUSH1 0x1F NOT PUSH1 0x3F RETURNDATASIZE ADD AND DUP3 ADD PUSH1 0x40 MSTORE RETURNDATASIZE DUP3 MSTORE RETURNDATASIZE PUSH1 0x0 PUSH1 0x20 DUP5 ADD RETURNDATACOPY PUSH2 0xEC3 JUMP JUMPDEST PUSH1 0x60 SWAP2 POP JUMPDEST POP SWAP2 POP SWAP2 POP PUSH2 0xED3 DUP7 DUP4 DUP4 PUSH2 0xF05 JUMP JUMPDEST SWAP7 SWAP6 POP POP POP POP POP POP JUMP JUMPDEST PUSH1 0x0 PUSH1 0xFF DUP3 AND PUSH1 0x1F DUP2 GT ISZERO PUSH2 0x9AA JUMPI PUSH1 0x40 MLOAD PUSH4 0x2CD44AC3 PUSH1 0xE2 SHL DUP2 MSTORE PUSH1 0x4 ADD PUSH1 0x40 MLOAD DUP1 SWAP2 SUB SWAP1 REVERT JUMPDEST PUSH1 0x60 DUP3 PUSH2 0xF1A JUMPI PUSH2 0xF15 DUP3 PUSH2 0xF61 JUMP JUMPDEST PUSH2 0xD2B JUMP JUMPDEST DUP2 MLOAD ISZERO DUP1 ISZERO PUSH2 0xF31 JUMPI POP PUSH1 0x1 PUSH1 0x1 PUSH1 0xA0 SHL SUB DUP5 AND EXTCODESIZE ISZERO JUMPDEST ISZERO PUSH2 0xF5A JUMPI PUSH1 0x40 MLOAD PUSH4 0x9996B315 PUSH1 0xE0 SHL DUP2 MSTORE PUSH1 0x1 PUSH1 0x1 PUSH1 0xA0 SHL SUB DUP6 AND PUSH1 0x4 DUP3 ADD MSTORE PUSH1 0x24 ADD PUSH2 0x29D JUMP JUMPDEST POP DUP1 PUSH2 0xD2B JUMP JUMPDEST DUP1 MLOAD ISZERO PUSH2 0xF71 JUMPI DUP1 MLOAD DUP1 DUP3 PUSH1 0x20 ADD REVERT JUMPDEST PUSH1 0x40 MLOAD PUSH4 0xA12F521 PUSH1 0xE1 SHL DUP2 MSTORE PUSH1 0x4 ADD PUSH1 0x40 MLOAD DUP1 SWAP2 SUB SWAP1 REVERT JUMPDEST PUSH4 0x4E487B71 PUSH1 0xE0 SHL PUSH1 0x0 MSTORE PUSH1 0x41 PUSH1 0x4 MSTORE PUSH1 0x24 PUSH1 0x0 REVERT JUMPDEST PUSH1 0x40 MLOAD PUSH2 0x160 DUP2 ADD PUSH8 0xFFFFFFFFFFFFFFFF DUP2 GT DUP3 DUP3 LT OR ISZERO PUSH2 0xFC4 JUMPI PUSH2 0xFC4 PUSH2 0xF8A JUMP JUMPDEST PUSH1 0x40 MSTORE SWAP1 JUMP JUMPDEST DUP1 CALLDATALOAD PUSH1 0x1 PUSH1 0x1 PUSH1 0xA0 SHL SUB DUP2 AND DUP2 EQ PUSH2 0xFE1 JUMPI PUSH1 0x0 DUP1 REVERT JUMPDEST SWAP2 SWAP1 POP JUMP JUMPDEST PUSH1 0x0 PUSH2 0x160 DUP3 DUP5 SUB SLT ISZERO PUSH2 0xFF9 JUMPI PUSH1 0x0 DUP1 REVERT JUMPDEST PUSH2 0x1001 PUSH2 0xFA0 JUMP JUMPDEST DUP3 CALLDATALOAD DUP2 MSTORE SWAP1 POP PUSH2 0x1013 PUSH1 0x20 DUP4 ADD PUSH2 0xFCA JUMP JUMPDEST PUSH1 0x20 DUP3 ADD MSTORE PUSH2 0x1024 PUSH1 0x40 DUP4 ADD PUSH2 0xFCA JUMP JUMPDEST PUSH1 0x40 DUP3 ADD MSTORE PUSH2 0x1035 PUSH1 0x60 DUP4 ADD PUSH2 0xFCA JUMP JUMPDEST PUSH1 0x60 DUP3 ADD MSTORE PUSH1 0x80 DUP3 DUP2 ADD CALLDATALOAD SWAP1 DUP3 ADD MSTORE PUSH2 0x1050 PUSH1 0xA0 DUP4 ADD PUSH2 0xFCA JUMP JUMPDEST PUSH1 0xA0 DUP3 ADD MSTORE PUSH2 0x1061 PUSH1 0xC0 DUP4 ADD PUSH2 0xFCA JUMP JUMPDEST PUSH1 0xC0 DUP3 ADD MSTORE PUSH1 0xE0 DUP3 DUP2 ADD CALLDATALOAD SWAP1 DUP3 ADD MSTORE PUSH2 0x100 DUP1 DUP4 ADD CALLDATALOAD SWAP1 DUP3 ADD MSTORE PUSH2 0x120 DUP1 DUP4 ADD CALLDATALOAD SWAP1 DUP3 ADD MSTORE PUSH2 0x140 SWAP2 DUP3 ADD CALLDATALOAD SWAP2 DUP2 ADD SWAP2 SWAP1 SWAP2 MSTORE SWAP2 SWAP1 POP JUMP JUMPDEST PUSH1 0x0 PUSH2 0x160 DUP3 DUP5 SUB SLT ISZERO PUSH2 0x10AC JUMPI PUSH1 0x0 DUP1 REVERT JUMPDEST PUSH2 0xD2B DUP4 DUP4 PUSH2 0xFE6 JUMP JUMPDEST PUSH1 0x0 DUP3 PUSH1 0x1F DUP4 ADD SLT PUSH2 0x10C7 JUMPI PUSH1 0x0 DUP1 REVERT JUMPDEST DUP2 CALLDATALOAD PUSH8 0xFFFFFFFFFFFFFFFF DUP2 GT ISZERO PUSH2 0x10E1 JUMPI PUSH2 0x10E1 PUSH2 0xF8A JUMP JUMPDEST PUSH1 0x40 MLOAD PUSH1 0x1F DUP3 ADD PUSH1 0x1F NOT SWAP1 DUP2 AND PUSH1 0x3F ADD AND DUP2 ADD PUSH8 0xFFFFFFFFFFFFFFFF DUP2 GT DUP3 DUP3 LT OR ISZERO PUSH2 0x1110 JUMPI PUSH2 0x1110 PUSH2 0xF8A JUMP JUMPDEST PUSH1 0x40 MSTORE DUP2 DUP2 MSTORE DUP4 DUP3 ADD PUSH1 0x20 ADD DUP6 LT ISZERO PUSH2 0x1128 JUMPI PUSH1 0x0 DUP1 REVERT JUMPDEST DUP2 PUSH1 0x20 DUP6 ADD PUSH1 0x20 DUP4 ADD CALLDATACOPY PUSH1 0x0 SWAP2 DUP2 ADD PUSH1 0x20 ADD SWAP2 SWAP1 SWAP2 MSTORE SWAP4 SWAP3 POP POP POP JUMP JUMPDEST PUSH1 0x0 DUP1 PUSH1 0x0 PUSH2 0x1A0 DUP5 DUP7 SUB SLT ISZERO PUSH2 0x115B JUMPI PUSH1 0x0 DUP1 REVERT JUMPDEST PUSH2 0x1165 DUP6 DUP6 PUSH2 0xFE6 JUMP JUMPDEST SWAP3 POP PUSH2 0x160 DUP5 ADD CALLDATALOAD PUSH8 0xFFFFFFFFFFFFFFFF DUP2 GT ISZERO PUSH2 0x1182 JUMPI PUSH1 0x0 DUP1 REVERT JUMPDEST PUSH2 0x118E DUP7 DUP3 DUP8 ADD PUSH2 0x10B6 JUMP JUMPDEST SWAP3 POP POP PUSH2 0x119E PUSH2 0x180 DUP6 ADD PUSH2 0xFCA JUMP JUMPDEST SWAP1 POP SWAP3 POP SWAP3 POP SWAP3 JUMP JUMPDEST PUSH1 0x0 JUMPDEST DUP4 DUP2 LT ISZERO PUSH2 0x11C2 JUMPI DUP2 DUP2 ADD MLOAD DUP4 DUP3 ADD MSTORE PUSH1 0x20 ADD PUSH2 0x11AA JUMP JUMPDEST POP POP PUSH1 0x0 SWAP2 ADD MSTORE JUMP JUMPDEST PUSH1 0x0 DUP2 MLOAD DUP1 DUP5 MSTORE PUSH2 0x11E3 DUP2 PUSH1 0x20 DUP7 ADD PUSH1 0x20 DUP7 ADD PUSH2 0x11A7 JUMP JUMPDEST PUSH1 0x1F ADD PUSH1 0x1F NOT AND SWAP3 SWAP1 SWAP3 ADD PUSH1 0x20 ADD SWAP3 SWAP2 POP POP JUMP JUMPDEST PUSH1 0xFF PUSH1 0xF8 SHL DUP9 AND DUP2 MSTORE PUSH1 0xE0 PUSH1 0x20 DUP3 ADD MSTORE PUSH1 0x0 PUSH2 0x1216 PUSH1 0xE0 DUP4 ADD DUP10 PUSH2 0x11CB JUMP JUMPDEST DUP3 DUP2 SUB PUSH1 0x40 DUP5 ADD MSTORE PUSH2 0x1228 DUP2 DUP10 PUSH2 0x11CB JUMP JUMPDEST PUSH1 0x60 DUP5 ADD DUP9 SWAP1 MSTORE PUSH1 0x1 PUSH1 0x1 PUSH1 0xA0 SHL SUB DUP8 AND PUSH1 0x80 DUP6 ADD MSTORE PUSH1 0xA0 DUP5 ADD DUP7 SWAP1 MSTORE DUP4 DUP2 SUB PUSH1 0xC0 DUP6 ADD MSTORE DUP5 MLOAD DUP1 DUP3 MSTORE PUSH1 0x20 DUP1 DUP8 ADD SWAP4 POP SWAP1 SWAP2 ADD SWAP1 PUSH1 0x0 JUMPDEST DUP2 DUP2 LT ISZERO PUSH2 0x127E JUMPI DUP4 MLOAD DUP4 MSTORE PUSH1 0x20 SWAP4 DUP5 ADD SWAP4 SWAP1 SWAP3 ADD SWAP2 PUSH1 0x1 ADD PUSH2 0x1260 JUMP JUMPDEST POP SWAP1 SWAP12 SWAP11 POP POP POP POP POP POP POP POP POP POP POP JUMP JUMPDEST PUSH1 0x0 DUP1 PUSH2 0x180 DUP4 DUP6 SUB SLT ISZERO PUSH2 0x12A3 JUMPI PUSH1 0x0 DUP1 REVERT JUMPDEST PUSH2 0x12AD DUP5 DUP5 PUSH2 0xFE6 JUMP JUMPDEST SWAP2 POP PUSH2 0x160 DUP4 ADD CALLDATALOAD PUSH8 0xFFFFFFFFFFFFFFFF DUP2 GT ISZERO PUSH2 0x12CA JUMPI PUSH1 0x0 DUP1 REVERT JUMPDEST PUSH2 0x12D6 DUP6 DUP3 DUP7 ADD PUSH2 0x10B6 JUMP JUMPDEST SWAP2 POP POP SWAP3 POP SWAP3 SWAP1 POP JUMP JUMPDEST DUP2 MLOAD DUP2 MSTORE PUSH1 0x20 DUP1 DUP4 ADD MLOAD PUSH2 0x160 DUP4 ADD SWAP2 PUSH2 0x1304 SWAP1 DUP5 ADD DUP3 PUSH1 0x1 PUSH1 0x1 PUSH1 0xA0 SHL SUB AND SWAP1 MSTORE JUMP JUMPDEST POP PUSH1 0x40 DUP4 ADD MLOAD PUSH2 0x131F PUSH1 0x40 DUP5 ADD DUP3 PUSH1 0x1 PUSH1 0x1 PUSH1 0xA0 SHL SUB AND SWAP1 MSTORE JUMP JUMPDEST POP PUSH1 0x60 DUP4 ADD MLOAD PUSH2 0x133A PUSH1 0x60 DUP5 ADD DUP3 PUSH1 0x1 PUSH1 0x1 PUSH1 0xA0 SHL SUB AND SWAP1 MSTORE JUMP JUMPDEST POP PUSH1 0x80 DUP4 ADD MLOAD PUSH1 0x80 DUP4 ADD MSTORE PUSH1 0xA0 DUP4 ADD MLOAD PUSH2 0x135F PUSH1 0xA0 DUP5 ADD DUP3 PUSH1 0x1 PUSH1 0x1 PUSH1 0xA0 SHL SUB AND SWAP1 MSTORE JUMP JUMPDEST POP PUSH1 0xC0 DUP4 ADD MLOAD PUSH2 0x137A PUSH1 0xC0 DUP5 ADD DUP3 PUSH1 0x1 PUSH1 0x1 PUSH1 0xA0 SHL SUB AND SWAP1 MSTORE JUMP JUMPDEST POP PUSH1 0xE0 DUP4 ADD MLOAD PUSH1 0xE0 DUP4 ADD MSTORE PUSH2 0x100 DUP4 ADD MLOAD PUSH2 0x100 DUP4 ADD MSTORE PUSH2 0x120 DUP4 ADD MLOAD PUSH2 0x120 DUP4 ADD MSTORE PUSH2 0x140 DUP4 ADD MLOAD PUSH2 0x140 DUP4 ADD MSTORE SWAP3 SWAP2 POP POP JUMP JUMPDEST DUP3 DUP2 MSTORE PUSH1 0x40 PUSH1 0x20 DUP3 ADD MSTORE PUSH1 0x0 PUSH2 0x13C8 PUSH1 0x40 DUP4 ADD DUP5 PUSH2 0x11CB JUMP JUMPDEST SWAP5 SWAP4 POP POP POP POP JUMP JUMPDEST PUSH1 0x0 PUSH1 0x20 DUP3 DUP5 SUB SLT ISZERO PUSH2 0x13E2 JUMPI PUSH1 0x0 DUP1 REVERT JUMPDEST DUP2 MLOAD PUSH1 0x1 PUSH1 0x1 PUSH1 0xE0 SHL SUB NOT DUP2 AND DUP2 EQ PUSH2 0xD2B JUMPI PUSH1 0x0 DUP1 REVERT JUMPDEST PUSH1 0x0 PUSH1 0x20 DUP3 DUP5 SUB SLT ISZERO PUSH2 0x140C JUMPI PUSH1 0x0 DUP1 REVERT JUMPDEST DUP2 MLOAD DUP1 ISZERO ISZERO DUP2 EQ PUSH2 0xD2B JUMPI PUSH1 0x0 DUP1 REVERT JUMPDEST PUSH1 0x1 DUP2 DUP2 SHR SWAP1 DUP3 AND DUP1 PUSH2 0x1430 JUMPI PUSH1 0x7F DUP3 AND SWAP2 POP JUMPDEST PUSH1 0x20 DUP3 LT DUP2 SUB PUSH2 0x1450 JUMPI PUSH4 0x4E487B71 PUSH1 0xE0 SHL PUSH1 0x0 MSTORE PUSH1 0x22 PUSH1 0x4 MSTORE PUSH1 0x24 PUSH1 0x0 REVERT JUMPDEST POP SWAP2 SWAP1 POP JUMP JUMPDEST PUSH4 0x4E487B71 PUSH1 0xE0 SHL PUSH1 0x0 MSTORE PUSH1 0x21 PUSH1 0x4 MSTORE PUSH1 0x24 PUSH1 0x0 REVERT JUMPDEST PUSH1 0x0 DUP3 MLOAD PUSH2 0x147E DUP2 DUP5 PUSH1 0x20 DUP8 ADD PUSH2 0x11A7 JUMP JUMPDEST SWAP2 SWAP1 SWAP2 ADD SWAP3 SWAP2 POP POP JUMP INVALID LOG2 PUSH5 0x6970667358 0x22 SLT KECCAK256 0xD0 POP MCOPY 0xC6 0xD1 0xCA 0xAB 0xE7 0xFC 0xCE BALANCE 0xCC NUMBER 0xC1 0x29 SWAP15 PUSH27 0x87D946E85A70D7405E258BF765587864736F6C634300081A003300 "
        },
        "methodIdentifiers": {
          "_verify((uint256,address,address,address,uint256,address,address,uint256,uint256,uint256,uint256),bytes)": "a4255463",
          "cancelPayment((uint256,address,address,address,uint256,address,address,uint256,uint256,uint256,uint256))": "9744aea3",
          "eip712Domain()": "84b0196e",
          "isCanceled((uint256,address,address,address,uint256,address,address,uint256,uint256,uint256,uint256))": "599374b4",
          "isProcessed((uint256,address,address,address,uint256,address,address,uint256,uint256,uint256,uint256))": "8b38c7d7",
          "processPayment((uint256,address,address,address,uint256,address,address,uint256,uint256,uint256,uint256),bytes,address)": "7a33a5cd"
        }
      },
      "storageLayout": {
        "storage": [
          {
            "astId": 1731,
            "contract": "contracts/JustPay/JustPay.sol:JustPay",
            "label": "_nameFallback",
            "offset": 0,
            "slot": "0",
            "type": "t_string_storage"
          },
          {
            "astId": 1733,
            "contract": "contracts/JustPay/JustPay.sol:JustPay",
            "label": "_versionFallback",
            "offset": 0,
            "slot": "1",
            "type": "t_string_storage"
          },
          {
            "astId": 3396,
            "contract": "contracts/JustPay/JustPay.sol:JustPay",
            "label": "_processedPayments",
            "offset": 0,
            "slot": "2",
            "type": "t_mapping(t_bytes32,t_bool)"
          },
          {
            "astId": 3400,
            "contract": "contracts/JustPay/JustPay.sol:JustPay",
            "label": "_canceledPayments",
            "offset": 0,
            "slot": "3",
            "type": "t_mapping(t_bytes32,t_bool)"
          },
          {
            "astId": 706,
            "contract": "contracts/JustPay/JustPay.sol:JustPay",
            "label": "_status",
            "offset": 0,
            "slot": "4",
            "type": "t_uint256"
          }
        ],
        "types": {
          "t_bool": {
            "encoding": "inplace",
            "label": "bool",
            "numberOfBytes": "1"
          },
          "t_bytes32": {
            "encoding": "inplace",
            "label": "bytes32",
            "numberOfBytes": "32"
          },
          "t_mapping(t_bytes32,t_bool)": {
            "encoding": "mapping",
            "key": "t_bytes32",
            "label": "mapping(bytes32 => bool)",
            "numberOfBytes": "32",
            "value": "t_bool"
          },
          "t_string_storage": {
            "encoding": "bytes",
            "label": "string",
            "numberOfBytes": "32"
          },
          "t_uint256": {
            "encoding": "inplace",
            "label": "uint256",
            "numberOfBytes": "32"
          }
        }
      }
    }
  }
}